:020000040800F2
:1000000000040020DF010008ED010008EF010008F6
:10001000F1010008F3010008F501000800000000EC
:10002000000000000000000000000000F7010008D0
:10003000F901000800000000FB010008FD010008B4
:10004000FF010008FF010008FF010008FF01000890
:10005000FF010008FF010008FF010008FF01000880
:10006000FF010008FF010008FF010008FF01000870
:10007000FF010008FF010008FF010008FF01000860
:10008000FF010008FF010008FF010008FF01000850
:10009000FF010008FF010008FF010008FF01000840
:1000A000FF010008FF010008FF010008FF01000830
:1000B000FF010008FF010008FF010008FF01000820
:1000C000FF010008FF010008FF010008FF01000810
:1000D000FF01000827090008FF010008FF010008D0
:1000E000FF010008FF010008FF010008FF010008F0
:1000F000FF010008FF010008FF010008FF010008E0
:10010000FF010008FF010008FF010008FF010008CF
:10011000FF010008FF010008FF010008FF010008BF
:10012000FF010008FF010008FF010008FF010008AF
:1001300000F002F800F03CF80AA090E8000C8244BD
:100140008344AAF10107DA4501D100F031F8AFF29A
:10015000090EBAE80F0013F0010F18BFFB1A43F0A5
:1001600001031847DC2B0000FC2B0000103A24BFD1
:1001700078C878C1FAD8520724BF30C830C144BF0C
:1001800004680C607047000000230024002500264E
:10019000103A28BF78C1FBD8520728BF30C148BFEA
:1001A0000B6070471FB502F00CF81FBD10B510BDF5
:1001B00001F0DFFA1146FFF7F5FF00F0DEF801F07D
:1001C000FDFA03B4FFF7F2FF03BC00F09FFB000051
:1001D00030BF72B662B680F30888704770470B482C
:1001E00080470B4981F308880A480047FEE7FEE78D
:1001F000FEE7FEE7FEE7FEE7FEE7FEE7FEE7FEE7D7
:1002000005480649044A064B70470000DD01000816
:10021000380E00203101000838060020380E00207A
:10022000380600202DE9F047AA20B049C877B04829
:100230008088FF2190FBF1F0AC490870AC488088C1
:10024000FF2190FBF1F201FB1200A8494870A84879
:10025000C088FF2190FBF1F0A4498870A448C088B1
:10026000FF2190FBF1F201FB1200A049C870A048E9
:100270000088FF2190FBF1F09C4908719C480088A0
:10028000FF2190FBF1F201FB120098494871984858
:100290004088FF2190FBF1F0944988719448408890
:1002A000FF2190FBF1F201FB12009049C8719048C8
:1002B0000089FF2190FBF1F08C4908728C4800897D
:1002C000FF2190FBF1F201FB120088494872884837
:1002D0004089FF2190FBF1F084498872844840896D
:1002E000FF2190FBF1F201FB12008049C8728048A7
:1002F0008089FF2190FBF1F07C4908737C4880895C
:10030000FF2190FBF1F201FB120078494873784914
:10031000088901F03BFB8046764A774B01F04AFBA7
:1003200006460022754B01F08BFA044601F056FA9E
:10033000734908606E49488901F028FB064600228F
:10034000704B01F037FB044601F048FA6E49086033
:100350006749888901F01AFB06466C4A6C4B01F02C
:1003600029FB044600226B4B01F06AFA804601F03B
:1003700035FA69490860BDE8F08708B5092000F042
:1003800060FA4FF41651482000F007FB482000F0B7
:10039000E9F800F0EFFB6148806940F001005F4937
:1003A00088614FF000705E4948605E48006840F424
:1003B00080705C4908605948006A20F00100574984
:1003C000086200F035FE00F04DFC03E04FF4487089
:1003D00000F0DEF800F0BFFC0028F7D100F030FD9F
:1003E00001F093F850A20021084601F06CF851A2E8
:1003F0000F21002001F067F84FA21E21002001F01C
:1004000062F84EA22D21002001F05DF800F012FFED
:10041000C82000F005FC67E04948006849490870B9
:100420004948D0F82C01494908704748D0F83001B4
:10043000474908704FF00000464908700FE00A2253
:100440001E214448007800F0AEFE2949414A127846
:1004500021F812003F480078401C3E4908703D4892
:1004600000780728EBDBFFF7DDFE3B491F4800F073
:10047000B8FC602807D13948006820F4807028490A
:10048000C1F80C0804E036480068401C3449086094
:100490001B48006801F09AFD0446102300930423D2
:1004A00002460F21084600F0C2FF1748006801F01D
:1004B0008DFD044610230093042302461E210F20C5
:1004C00000F0B5FF1448006801F080FD04461023D9
:1004D0000093042302462D210F2000F0A8FF00F016
:1004E000A9FE052000F06FF896E70000A8000020A4
:1004F000E80000209A9999999999A93F00006940CC
:100500000C0000200000E03F100000207B14AE47EC
:10051000E17A943F00003E401400002000100240A9
:1005200000000140007000404C6975596F754361CF
:1005300069000000503A2000493A2000443A200067
:100540001C0121424C000020000021424D000020EF
:100550004E00002009000020C80000200C080140C7
:10056000480000204FF0E021096921F004014FF01C
:10057000E0221161C21700EB5272D2101F4B1A70A9
:10058000194609784FF47A7251431D4A1180704719
:1005900001461A4A12784A434FF0E0235A6100227A
:1005A0009A6101221A6100BF4FF0E022106910F039
:1005B000010F02D010F4803FF6D000224FF0E0236C
:1005C0001A619A61704701460D4A12884A434FF0FA
:1005D000E0235A6100229A6101221A6100BF4FF0A4
:1005E000E022106910F0010F02D010F4803FF6D025
:1005F00000224FF0E0231A619A61704750000020FA
:1006000052000020AF4A0A400243AF4B1A607047C5
:100610000146072323EA01021202AC4B18684FF689
:10062000FF0300EA0300AA4B40EA030040EA02008D
:100630004FF0E023C3F80C0D70472DE9F0478046DA
:10064000894614461D462046E11704EB91714FEA96
:10065000A10AE11704EB91718910A4EB8101CFB2DB
:10066000042000EBC700C7B22846FFF7D1FFC5F151
:10067000040008FA00F60F20284100EA09000643AA
:1006800006F00F06202C0CDA924800684FF00101AA
:1006900001FA04F140EA01004FF0E021C1F8000145
:1006A0000DE08D480068A4F120014FF0010202FA2C
:1006B00001F240EA02004FF0E021C1F8040187484E
:1006C00050F82A0006FA07F10843844941F82A0045
:1006D000BDE8F08770B504460B46CE1701EB967661
:1006E000B010CE1701EB9676B610A1EB8606B606D3
:1006F000350E7B4B9B6943F00103794EB3614FEAA2
:10070000B63353F820300F26AE40B343754E46F84B
:100710002030334653F8203004FA05F63343714E47
:1007200046F82030704B1E684FF0010303FA01F3C6
:1007300046EA03066D4BC3F8006412F0010F0AD0BD
:100740006B4B1B684FF0010606FA01F643EA0603FD
:10075000664EC6F80C3412F0020F0AD0654B1B68C7
:100760004FF0010606FA01F643EA06035F4EC6F8AB
:10077000083470BD00B5002059490861C8601420D4
:10078000486100208861C8610846006840F00100A7
:100790000860084640685849084051494860084682
:1007A0000068564908404E4908600846006820F431
:1007B000802008600846406820F4FE004860002061
:1007C000886000214FF00060FFF71CFF00BD10B5EE
:1007D0004B48006840F004004FF0E021C1F8100DD4
:1007E0003F48C06940F080503D49C8614548406875
:1007F00040F48070434948600846006840F00400B7
:1008000008600846006840F002000860FFF7E0FC5E
:1008100010BD2F48001D2D4908607047014649064C
:100820002F4A926942F001022D4B9A612F4A526879
:1008300022F0E0622D4B5A601A4652680A435A6011
:10084000704730B504460025FFF794FF2448006840
:1008500040F480302249086000BF21480068400C05
:10086000FBD04FF480601E494860A01EC4B2084609
:10087000406840EA844048600846406840F4803060
:1008800048602148006840F032001F490860144861
:10089000006840F080701249086000BF104800688E
:1008A000400EFBD00E48406840F002000C49486002
:1008B00005E00B484068C0F3870505F00305022DED
:1008C000F7D130BD80FFFF1F08ED00E00CED00E028
:1008D0000000FA0500E100E004E100E000E400E0CF
:1008E00000100240080001400004014000000140E7
:1008F0000C040140080401400000FFF8FFFFF6FE71
:1009000010ED00E00070004000200240014600BFF2
:10091000704700BF8D4A128812F0400FFAD0C2B261
:100920008B4B1A8070478949098811F0200F33D00A
:1009300087490988C8B28749098811F4004F2BD12B
:100940008449098811F4804F0CD00A2803D0002173
:10095000804A118020E07F49098841F400417D4AA6
:10096000118019E00D2806D17A49098841F48041A7
:10097000784A118010E077490988C1F30D01764A61
:10098000505474490988491C724A118011460988DB
:10099000C72901DD0021118070472DE9F05F054670
:1009A0000E46300101F032FB81466C4905FB01F037
:1009B00001F02CFB8246494601F046FA07463846CC
:1009C00001F004FB84B2204601F020FB8346394647
:1009D00001F003FC82464FF0834101F02BFB81467E
:1009E00001F0F4FA8046240104EB080084B25C486C
:1009F000806940F004005A4988610846806940F4E3
:100A0000804088615748006820F47F605649C1F8EB
:100A100004080846D0F8040840F40B60C1F8040844
:100A20004F48C06840F480404D49C8600846C068DF
:100A300020F48040C8604D48A0F808484C48008821
:100A400042F20C0140EA01004849A1F80C080846AE
:100A5000B0F80C0840F48070A1F80C080846B0F813
:100A60000C0840F02000424908804FF002034FF08C
:100A700025024FF003010846FFF7DFFDBDE8F09FB8
:100A80003349088000BF3149098811F0400FFAD07E
:100A900070470146084609E010F8012B2C4B1A80DC
:100AA00000BF2A4A128812F0400FFAD00278002ABA
:100AB000F2D170477CB504460E4600250020009018
:100AC00001900A2094FBF0F100FB1140C0B28DF8B8
:100AD00000000A2094FBF0F00A2190FBF1F201FBE8
:100AE0001200C0B28DF80100642094FBF0F090FB7E
:100AF000F1F201FB1200C0B28DF802004FF47A70DF
:100B000094FBF0F090FBF1F201FB1200C0B28DF803
:100B1000030042F2107094FBF0F090FBF1F201FB45
:100B20001200C0B28DF80400751E09E01DF8051012
:100B30003031C8B2FFF7A4FF0120FFF744FD6D1E5E
:100B4000002DF3DA2020FFF79BFF7CBD0038014029
:100B500004380140540000201001002040420F00E2
:100B60000010024004080140000001400030014034
:100B70000C3801403548806940F0040033498861F1
:100B800033480068334900EA01003349C1F80408DA
:100B90002F480068314940EA01002F49C1F8040894
:100BA0000846D0F8000820F07040C1F80008084658
:100BB000D0F8000840F00040C1F800080846D0F81E
:100BC0000C0820F48070C1F80C08704710B504467A
:100BD0002348006840F480701F49C1F80C08204683
:100BE000FFF7F1FC1C48D0F80C0820F480701A497B
:100BF000C1F80C082046FFF7E6FC1748D0F80C08AF
:100C000040F48070164908602046FFF7DCFC12486B
:100C1000D0F80C0820F480700F49C1F80C0810BD02
:100C200010B504460E48006840F480700A49C1F8C7
:100C30000C082046FFF7C7FC0748D0F80C0820F442
:100C400080700549C1F80C0810BD0000001002407A
:100C500004080140F00FF0FF00000140038008008D
:100C60000C08014010B59848806940F0080096498A
:100C700088610846806940F01000886193484068A8
:100C8000C0F3130091494860084640689049084302
:100C90008E4948608F48406840F001008D494860A7
:100CA00000F051F98C48008820F040008A49088003
:100CB0000846008820F0020008800846008820F0DE
:100CC000010008800846008840F0400008800120AC
:100CD00000F08EF90020814908604FF00100804942
:100CE000C1F8B80110BD2DE9F04107460D46164682
:100CF00000207C490860384600F000F98046002456
:100D000005E0FF2000F0FAF82855601CC4B2B44298
:100D1000F7DB0120734908604046BDE8F0812DE90A
:100D2000F04107460C46154600206E4908603846DB
:100D300000F0E4F88046002605E014F8010B00F00E
:100D4000DDF8701CC6B2AE42F7DB012065490860D1
:100D50004046BDE8F0811CB563A103C9CDE900019F
:100D6000052269463020FFF7DAFF05226946102088
:100D7000FFF7B9FF002406E01DF80400A52800D005
:100D800003E0601CC4B2052CF6DB00BF052C01D0CB
:100D900001201CBD0020FCE770B505460C46002074
:100DA00050490860284600F0A9F80646204600F0A1
:100DB000A5F801204A49C1F8B801304670BD70B5A8
:100DC0000446002047490860204600F097F8FF20BD
:100DD00000F094F8054601204149C1F8B8012846C1
:100DE00070BD70B505460E4600203C4908604FF0C6
:100DF000200229464FF0A000FFF791FF012038495B
:100E0000C1F8B40100BF3A4800680028FBD14FF098
:100E10000700FFF7D4FF044621462720FFF7BCFF59
:100E200014F0100F05D0FF21E120FFF7B5FF1020CF
:100E300070BD14F0600F01D06020F9E7FF20F7E7E4
:100E400010B50020254908604FF0050229494FF0F0
:100E50003000FFF764FF052227492A20FFF75FFFD4
:100E600001212120FFF798FF01212220FFF794FFA5
:100E70001A212420FFF790FF28212520FFF78CFF5F
:100E800006213D20FFF788FF1D20FFF798FF38B9A6
:100E90001C20FFF794FF18B973215020FFF77CFF47
:100EA00006213D20FFF778FF3F213C20FFF774FF2C
:100EB0000F212620FFF770FF0E212020FFF76CFF87
:100EC00001200649086010BD0010024000100140DA
:100ED000000020820000014000300140B4012242A5
:100EE00000002242B8012242A5A5A5A5A500000048
:100EF0003C0122425C0000206100002002460021EB
:100F000007E0481C81B24FF6FE70814201DB0020F1
:100F100070474148008910F0020FF2D03E488281AC
:100F2000002107E0481C81B24FF6FE70814201DBD0
:100F30000020EDE73848008910F0010FF2D0364864
:100F40008089C0B2E4E700B53448806940F0080009
:100F5000324988610846806940F480508861304891
:100F60000068304900EA01002F49C1F8000C2C4804
:100F700000682E4940EA01002B49C1F8000C0846E0
:100F8000D0F80C0C40F03800C1F80C0C2248008856
:100F9000214908800846008840F40070088008460F
:100FA000008840F4807008800846008840F0040003
:100FB00008800846008808800846008840F0020043
:100FC00008800846008840F0010008800846008834
:100FD00040F018000880084600880880084600880D
:100FE00040F0400008804FF0FF00FFF787FF00BD92
:100FF00000F00700084909884FF6C7721140064AF9
:1010000011801146098841EAC00111801146098802
:1010100041F0400111807047003001400010024053
:10102000000C0140FF0F00FF0000014000B0BB00BA
:101030006948806940F00400674988616748006832
:1010400000F070406649C1F800086348806940F4C8
:101050000070614988610846C06840F40070C8604B
:101060000846C06820F40070C8600846406820F454
:10107000404048600846406840F400404860594895
:101080000068594900EA01005849C1F8040455486C
:101090000068C1F804040846D0F8040420F4807005
:1010A000C1F804040846D0F8080420F00200C1F892
:1010B00008040846D0F8080420F46020C1F80804A9
:1010C0000846D0F8080440F46020C1F80804084637
:1010D000D0F8080440F48010C1F808040846D0F89D
:1010E000080420F40060C1F808040846D0F82C0475
:1010F00020F47000C1F82C040846D0F82C044FF0FE
:101100000000C1F82C040846D0F8100420F0380084
:10111000C1F810040846D0F8100440F03800C1F8B7
:1011200010040846D0F8080440F00100C1F8080493
:101130000846D0F8080440F00800C1F8080400BFD1
:101140002B48006810F0080FFAD12948006840F0D9
:1011500004002649C1F8080400BF2548006810F0C3
:10116000040FFAD1704701462248006820F01F00A2
:101170001E4AC2F834041046D0F8340440EA010094
:10118000C2F834041046D0F8080440F48000C2F8D5
:10119000080400BF1848006810F0020FFAD0174882
:1011A000006880B270472DE9F04180460C46154634
:1011B0000026002708E04046FFF7D5FF06442846F2
:1011C000FFF7E6F9781CC7B2A742F4DBB6FBF4F0F0
:1011D00080B2BDE8F081000000100240000801402C
:1011E0000000014004240140FFFFF0000020014006
:1011F0000824014034240140002401404C240140D3
:1012000000BFFF4A126860F31F22FE4BC3F80C2C8C
:10121000FD4A11604FF00002FC4B1A60A3F1040379
:101220001A604FF001021A60F84B1A60F84BC3F8CD
:101230009821704730B500241CE004F1B001C8B219
:101240000021FFF7DDFF00210846FFF7D9FF00214D
:101250001020FFF7D5FF002508E0EE4901EBC5019E
:10126000085D0121FFF7CCFF681CC5B2802DF4DBBF
:10127000601CC4B2082CE0DB30BD00B500218D201D
:10128000FFF7BEFF00211420FFF7BAFF0021AF20B7
:10129000FFF7B6FF00BD00B500218D20FFF7B0FFBE
:1012A00000211020FFF7ACFF0021AE20FFF7A8FFC0
:1012B00000BD30B500240CE0002506E00020D54933
:1012C00001EBC5010855681CC5B2802DF6DB601C1A
:1012D000C4B2082CF0DBFFF7ADFF30BDF0B514460B
:1012E00000267F2801DC3F2900DDF0BD0B46CF172B
:1012F00001EB5777FF10C7F10707FAB2CF1701EBE1
:101300005777FF10A1EBC707FDB2C5F1070701230F
:10131000BB40DEB24CB1BF4B03EBC0039B5C33431D
:10132000BC4F07EBC007BB5408E0BA4B03EBC0034C
:101330009B5CB343B74F07EBC007BB5400BFD4E778
:101340002DE9F04706460F4690469946DDF820A065
:1013500034460CE03D4606E0524629462046FFF75B
:10136000BDFF681CC5B24D45F6DD601CC4B24445E6
:10137000F0DDFFF75FFFBDE8F0872DE9FF4F804606
:101380000C4615461E46A346A5F12000C5B200270F
:101390003EE00C2E07D105EB45009F4901EB800094
:1013A00010F8079004E09D4800EB051010F8079036
:1013B0004FF0000A26E019F0800F05D02146404684
:1013C0000D9AFFF78BFF09E00D9808B9012000E0A6
:1013D0000020C2B221464046FFF780FF4FEA496035
:1013E0004FEA1069601CC4B2A4EB0B00B04205D1F7
:1013F0005C4608F1010000F0FF0806E00AF1010078
:1014000000F0FF0ABAF1080FD5DB00BF781CC7B2A5
:10141000B742BEDBBDE8FF8F10B50246012000E0F9
:1014200050430B00A1F10104E1B2F9D110BD2DE947
:10143000FF4F81B0074691461E460E9D4FF0000AB1
:1014400000243BE0301B401EC1B20A20FFF7E4FF3E
:10145000B9FBF0F00A21B0FBF1F201FB120000F041
:10146000FF08BAF1000F16D1701EA04213DDB8F1CB
:10147000000F0ED10123AB4605EBD571491001FBDE
:101480000471C8B200932B4620220299FFF775FF22
:1014900012E04FF0010A0123AB4605EBD57149106C
:1014A00001FB0471C8B200932B4608F13001CAB2A7
:1014B0000299FFF762FF00BF601CC4B2B442C1DBF7
:1014C00005B0BDE8F08F78B505460E46144618E025
:1014D0007A2D03DD002506F11000C6B23A2E04DD98
:1014E000002005460646FFF7E4FE0123009322781C
:1014F000102331462846FFF740FF05F10800C5B22A
:10150000641C20780028E3D178BD10B54448806978
:1015100040F00400424988610846806940F00800B4
:10152000886140480068404900EA01003549C1F837
:10153000000C3C4800683D4940EA01003149C1F8CF
:10154000000C0846D0F8040820F07040C1F80408E8
:101550000846D0F8040840F04050C1F80408084696
:10156000D0F80C0C40F00100C1F80C0C0846D0F883
:101570000C0C40F00200C1F80C0C0846D0F80C0C22
:1015800040F04000C1F80C0C0846D0F80C0C40F0BC
:1015900080001B4908604FF033301A49C1F8040C31
:1015A0000846D0F80C0C40F47F40154908604FF015
:1015B00000001F49C1F8BC014FF06400FFF703F8B9
:1015C00001201C4908604FF000014FF0AE00FFF70A
:1015D00017FE0120FEF7F7FF0021D520FFF710FED0
:1015E0000120FEF7F0FF00215020FFF709FE012047
:1015F000FEF7E9FF0021A820FFF702FE01201BE013
:101600000C0C01400000014098812142848121425C
:1016100000802142D8010020DA2200084E2700086D
:1016200000100240000C014000FFFF0033000033B7
:1016300000002142BC012142FEF7C5FF00213F20EE
:10164000FFF7DEFD0120FEF7BEFF0021D320FFF7EC
:10165000D7FD0120FEF7B7FF00210846FFF7D0FDB8
:101660000120FEF7B0FF00214020FFF7C9FD012057
:10167000FEF7A9FF00218D20FFF7C2FD0120FEF734
:10168000A2FF00211420FFF7BBFD0120FEF79BFF06
:1016900000212020FFF7B4FD0120FEF794FF002178
:1016A0000220FFF7ADFD0120FEF78DFF0021A120F4
:1016B000FFF7A6FD0120FEF786FF0021C020FFF7FF
:1016C0009FFD0120FEF77FFF0021DA20FFF798FD44
:1016D0000120FEF778FF00211220FFF791FD012085
:1016E000FEF771FF00218120FFF78AFD0120FEF740
:1016F0006AFF0021EF20FFF783FD0120FEF763FF63
:101700000021D920FFF77CFD0120FEF75CFF0021BE
:10171000F120FFF775FD0120FEF755FF0021DB20CA
:10172000FFF76EFD0120FEF74EFF00213020FFF78E
:1017300067FD0120FEF747FF0021A420FFF760FDB1
:101740000120FEF740FF0021A620FFF759FD0120F0
:10175000FEF739FF0021AF20FFF752FD0120FEF711
:1017600032FFFFF7A6FD10BD704770477047704706
:101770007047754600F028F8AE46050069465346A6
:1017800020F00700854618B020B5FEF739FDBDE80A
:1017900020404FF000064FF000074FF000084FF0D8
:1017A000000B21F00701AC46ACE8C009ACE8C00969
:1017B000ACE8C009ACE8C0098D4670470446AFF3F9
:1017C00000802046FEF7FDFC00487047D805002049
:1017D00001487047704700BFDC05002021F000423F
:1017E000A2F16052B2F5801F01F0004328BFD2F190
:1017F0007F6C0BD95FEA001C43EAC20242EB5070D7
:1018000018BF704728BF20F001007047B2F5801F55
:10181000BCBF184670474FEA410C1CF5001F02D2AE
:10182000084600F0D5BC70B500F06EF900000089E4
:10183000FFF7F6BF4FF00040A0F5800070470000B2
:1018400010B591EA030F48BF83F0004300F1B8815F
:10185000841A71EB030E05D2121943EB0E03001B21
:1018600061EB0E01DFF820C14FEA1154A4EB135EC7
:101870001CEA430F18BF9CEA445F71D023EA0C03B3
:10188000DEF1200C21EA045143F4801332D322FA12
:101890000EFC10EB0C0023FA0EFC41EB0C01CEF118
:1018A000200C03FA0CFC10EB0C0051F10001B1F517
:1018B000801FCEF1200C32D201EB0451BDE8104064
:1018C00012FA0CF258BF7047401C38BF5FEA420260
:1018D00018BF7047002814BF20F0010041F100013B
:1018E0004FEA410313F5001F38BF7047A1F1C04113
:1018F00000F058B9012A43EB0302AEF1200EDEF1ED
:101900001F0C32BF4FF0000C23FA0EF310EB030054
:1019100041EB0451B4EB115FD0D0A1EB045101F5C0
:101920008011490801EB0451BDE810405FEA300026
:101930000CD350F1000038BF12FA0CFC06D1C9E7F5
:10194000401C38BF5FEA4202CAD1C3E74FEA4103F5
:1019500013F5001F38BF7047A1F1C04100F022B954
:101960009CEA445F08D0BDE8104011EA5C0F04BF58
:1019700001F0004100207047BDE8104070B500F054
:10198000C3F800BF64FBBE3E0000E0FFB0FA80F386
:1019900010FA03F10AD0C3F11D0303F580634FEA87
:1019A00041504FEA035202EBD12170474FF0000043
:1019B00070470000DFF848C170B51CEA111E1EBF59
:1019C0001CEA13159EEA0C0F95EA0C0F00F06F80CD
:1019D00081EA030423EA4C134EEAD47E21EA4C1137
:1019E00041F4801143F48013AE44A1FB024CA0FBF0
:1019F0000365AEF17F7E361955EB0C05A1FB034C58
:101A00004CF10003A0FB021C16EB0C06654153F1E0
:101A10000003094218BF46F0010613F4007F0BD102
:101A20004FEA03314FEA0530340341EA155140EAE9
:101A300016506FF003020AE04FEAC3214FEAC520B7
:101A4000F40241EA555140EA56506FF0020202EBAF
:101A50002E4201EB025585EACE710AD05FEA440CB2
:101A600018BF24F0004450F1000041F1000120EAC9
:101A7000D47040F2FE7C624500D270BDA84214BF13
:101A80004FF080444FF04044002E08BF0024BEF1C8
:101A9000806FA8BFA1F1C041BDE8704080F2828094
:101AA0004FF0000001F1C04101F0004170479EEA93
:101AB0000C0F0CEA131518BF95EA0C0F06D04FF067
:101AC000000081EA030E0EF0004170BD00F01CF82A
:101AD0008900013E00F007B800F009B84FEA430C56
:101AE0005FEA5C5C08D081EA030100F05BB84FEA72
:101AF000410C5FEA5C5CF6D14FF000000149704791
:101B00000000FF070000F87F0EF1020E2EF0030E1A
:101B10005EF8046B364205D4012A43EB030515F544
:101B2000001F12D8012841EB010C1CF5001F0CD836
:101B30000ED14FEAD17C15F5001F0CEB4C0C0CF1CB
:101B4000020C08BF4CEBD37C04E04FF0080C01E022
:101B50004FEAD37C0CEB4C0526FA05F606F0070697
:101B6000B6F1040C06D20EEB860CBDE870404CF0CA
:101B7000010C6047DFE80CF0090B02024FF0004156
:101B80004FF00000A1F5002170BD19461046012854
:101B900051EB010418BFD4F5001484BF002001F0FC
:101BA000004170BD0808A0F500114FEA31017047EF
:101BB00010B591EA030F48BF83F000433FF548AEEC
:101BC000841A71EB030E07D212198EF0004E43EB0C
:101BD0000E03001B61EB0E01DFF8A4C14FEA1154A4
:101BE000A4EB135E1CEA430F18BF9CEA445F00F0AD
:101BF000B08023EA6C03524221EA0451C3EB6C0328
:101C000038BF5B1EDEF1200C25D322FA0EFC10EB50
:101C10000C0043FA0EFC41EB0C01CEF1200C03FA50
:101C20000CFC10EB0C0051F10001CEF1200C29D47A
:101C300001EB0451BDE8104012FA0CF258BF704796
:101C4000401C1CBFB2F1004F704700280CBF491C5C
:101C500020F00100704712EB020C43EB030218BFA7
:101C60004FF0010C4CEA4202AEF1200EDEF11E0CE8
:101C700054D943FA0EFC10EB0C0051F1FF31CEF1B8
:101C80001E0CD5D50CF1010C12FA0CFC404141EBB5
:101C9000010101EB445E5FEA5E5E10D901EB045185
:101CA000BDE8104010EBDC7038BFBCF1004F18BF2E
:101CB000704700280CBF491C20F00100704730D24B
:101CC0004FEAD42E11F5001124F400641BD0B1FAB0
:101CD00081F20B3AA41AA41ED2F12003914030FAEB
:101CE00003F31943904001EBCE71002C01EB04513A
:101CF000BDE81040A8BF704701F1C0414FF000009F
:101D000001F000417047B0FA80F310FA03F100D1FE
:101D100010BDE41A173C4805C90AE4E701EB045179
:101D200010BD491001EB0451BDE810404FEA3000EE
:101D300002E04FF0000170474A0008BF0042F8D0AF
:101D4000B2F5001F28BF704701F000414FF00000BE
:101D500070479CEA445F07D0BDE8104011EA5C0F71
:101D600004BF002100207047BDE8104070B5FFF7A8
:101D7000CBFE00BF40DFF63E83F0004110467047C7
:101D80000000E0FF90EA010F48BF81F0004100F140
:101D90003682421A3CBF801A89184FEAD0524FF05F
:101DA0007F4C1CEA410FA2EBD15318BF9CEA026F93
:101DB00000F03B804FF0004C4CEA00204CEA01213F
:101DC00021FA03FC10EB0C0C1ED202F1FF325FEA89
:101DD0001C2040EBC25038BF70471CF07F0F4FEA09
:101DE000400C18BFBCF17F4F38BF7047C3F12003D0
:101DF000994008BF20F00100BCF17F4F38BF704709
:101E0000A0F1C04000F0E4B94FEA3C00000A40EB0A
:101E1000C25028BF1CF0FF0F4FEA400CE6D018BF9D
:101E2000BCF17F4F38BF7047EAE79CEA026F05D0EC
:101E300010EA5C0F08BF00F00040704710B500F0DA
:101E40007AF900BF64FBBE3E4FF47F0C1CEAD0124F
:101E50001EBF1CEAD11392EA0C0F93EA0C0F00F09C
:101E6000858090EA010F48BF42F4807240F4000C74
:101E700041F400002CF07F4120F07F4000B581420A
:101E8000A2EB03020FF2081CACEB504EC0F10000B5
:101E90009EF800E04FEA4E0E00FB0EFC38BF4900F2
:101EA0004FEA2C1C02F5FA020CFB0EF34FEACE1E91
:101EB0004FEA112C4FEAC1210EEB635E42EB224246
:101EC0000EFB0CFC4FEA1C5300FB03114FEA112CD4
:101ED0004FEA01310EFB0CFC4FEADC4C00FB0C110D
:101EE000C14228BF09184CEB03335DF804EB10EB3B
:101EF000410143EBC250B2F57C0F38BF704729D582
:101F000012F0F00F1CBF00F1C04000F0004070471D
:101F1000008182838485868788898B8C8D8E8F91C2
:101F20009293959697999A9C9D9FA0A2A3A5A7A8E6
:101F3000AAACAEB0B2B3B5B7B9BCBEC0C2C5C7C912
:101F4000CCCED1D4D7D9DCDFE2E6E9ECF0F3F7FA76
:101F5000FE0000004FEA400C0CF1807CBCF17E4F8B
:101F600028BF7047B0F1C04000F032B990EA010FCD
:101F70000CEAD11348BF42F48072624538BF634512
:101F800007D213F47F0F16D080EA010000F0004062
:101F9000704710B500F0CFF8097EFC3E00F005B8A0
:101FA00080EA010000F00040704780EA010000F084
:101FB000004000F00DB912F47F0F04BF02487047D3
:101FC00080EA010000F004B90000C07FC10DD1F12A
:101FD0009E0206DB4FEA002343F0004323FA02F09F
:101FE0007047004207D54FEA4001B1F1FE4F02D2DF
:101FF0004FF00000704710B500F09DF84992248022
:10200000002070476FEA200070470000B0FA80F3AC
:1020100010FA03F2C3F19D030AD0D90501EB122097
:10202000530638BF704700F1010008BF20F00100DF
:10203000704700004FF47F0C1CEAD0121EBF1CEA50
:10204000D11392EA0C0F93EA0C0F00F0478090EA4C
:10205000010F48BF42F480724FF0004C4CEA002060
:102060004CEA012102EB0302A0FB0113A2F50002DE
:10207000002918BF43F001035B0028BF4FEA330378
:1020800042EB22425FEA132C4CEBC2502EBFBCEB5A
:10209000436FB2F57C0F70474FEA036CBCF1004F01
:1020A00008BF20F00100B2F57C0F38BF70470BD598
:1020B00082F0FF0212F5803FC8BF704700F1C040B8
:1020C000D8BF00F00040704700F5000C5FEA4C0CF0
:1020D00048BF7047B0F1C04000F07AB890EA010FF5
:1020E0000CEAD11348BF42F48072624538BF6345A1
:1020F00004D280EA010000F00040704710B500F003
:102100001AF800BF8900013E00F007B800F009B8D6
:102110005FEA410C5FEA1C6C08D080EA010000F025
:1021200057B85FEA400C5FEA1C6CF6D14FF00040F4
:10213000A0F5800070470EF1020E2EF0030E5EF83F
:10214000044B244204D44FEA4102B2F17F4F11D82C
:102150004FEA4003B3F17F4F0CD80ED14FEAD07C49
:10216000B2F17F4F0CEB4C0C0CF1020C08BF4CEBA6
:10217000D17C04E04FF0080C01E04FEAD17C0CEB7D
:102180004C0324FA03F404F00704B4F1040C06D25F
:102190000EEB840CBDE810404CF0010C6047DFE80A
:1021A0000CF0070802024FF00040A0F5800010BDBF
:1021B0000846420018BFD2F1807288BF00F000408C
:1021C00010BD10B5FFF704FB4FF00001016010BD1A
:1021D000FF2141EAD050C005704780F0004090EAEE
:1021E000010F7FF5D6AD81F0004100F008B8000086
:1021F00090EA010F48BF81F000413FF5CAAD421A95
:1022000004D882F00042A0EB020011444FEAD05201
:102210004FF07F4C1CEA410FA2EBD15318BF9CEA50
:10222000026F4AD04FF0004C4CEA00204CEA0121EA
:1022300021FA03FCB0EB0C0C0FD412F0FE0F36D0D9
:102240005FEA4C001DD5001240EBC25038BF70470A
:102250001CF03F0F18BF70470BE0A2F101025FEACC
:102260001C2040EBC25038BF70471CF07F0F18BFD6
:102270007047C3F12003994014BF401E20F00100B5
:10228000704780084FEA122308BF7047B0FA80FCFD
:10229000A2EB0C02CCF1280C60FA0CF093EA122F9E
:1022A00004BF00EBC25070474FEAC3707047130A77
:1022B0005FEADC1008BF7047F6E79CEA026F04D0C3
:1022C00010EA5C0F08BF0020704710B5FFF733FF1E
:1022D00040DFF63E81F00040704700000000000043
:1022E000000000000000000000003F40000000006F
:1022F00000000000300040003000400000000900F5
:102300000BC03D000BC03D00090018C024407FE019
:10231000224031800000180024C01B000D80324094
:10232000018003801C4027401C80074000401000B3
:10233000600000000000000000000000000000003D
:102340001F80204040200000402020401F800000CF
:102350000000090006001F800600090000000400BC
:1023600004003F8004000400000000100060000032
:102370000000000000000400040004000400040049
:1023800000000000004000000000000000000020ED
:1023900001C006003800400000001F80204020409F
:1023A00020401F800000000010403FC0004000009F
:1023B000000018C021402240244018400000108036
:1023C0002040244024401B80000002000D0011002A
:1023D0003FC0014000003C80244024402440238032
:1023E00000001F802440244034400380000030005F
:1023F000200027C03800200000001B80244024401B
:1024000024401B8000001C0022C0224022401F806C
:102410000000000000000840000000000000000074
:1024200000000460000000000000000004000A003A
:10243000110020804040090009000900090009003E
:10244000000000004040208011000A000400180035
:10245000200023402400180000001F802040274057
:1024600029401F400000004007C039000F0001C094
:10247000004020403FC0244024401B8000001F80BB
:102480002040204020403080000020403FC02040BD
:1024900020401F80000020403FC024402E4030C01C
:1024A000000020403FC024402E00300000000F00FC
:1024B0001080204022403380020020403FC00400B2
:1024C00004003FC02040204020403FC0204020402A
:1024D00000000060202020203FC02000200020407D
:1024E0003FC024400B0030C0204020403FC020406F
:1024F0000040004000C03FC03C0003C03C003FC063
:10250000000020403FC00C4023003FC020001F803F
:102510002040204020401F80000020403FC0244039
:102520002400180000001F802140214020E01FA04F
:10253000000020403FC02440260019C0004018C0C1
:1025400024402440224031800000300020403FC021
:1025500020403000000020003F80004000403F80CD
:10256000200020003E0001C0070038002000380095
:1025700007C03C0007C038000000204039C00600FA
:1025800039C0204000002000384007C038402000FB
:102590000000304021C02640384020C0000000002C
:1025A00000007FE0402040200000000070000C0090
:1025B0000380004000000000402040207FE0000039
:1025C000000000002000400020000000000000107B
:1025D000001000100010001000100000000040006B
:1025E000000000000000000002800540054003C01C
:1025F000004020003FC00440044003800000000071
:1026000003800440044006400000000003800440B2
:1026100024403FC0004000000380054005400340C7
:102620000000000004401FC024402440200000009F
:1026300002E0055005500650042020403FC00440F1
:10264000040003C000400000044027C00040000018
:10265000000000100010041027E0000000002040DF
:102660003FC00140070004C00440204020403FC05C
:1026700000400040000007C0040007C0040003C081
:102680000000044007C00440040003C000400000F4
:1026900003800440044003800000041007F004504D
:1026A000044003800000000003800440045007F051
:1026B0000010044007C002400400040000000000B5
:1026C00006400540054004C00000000004001F80D3
:1026D000044000400000040007800040044007C0A0
:1026E00000400400070004C001800600040006004A
:1026F00001C0070001C006000000044006C0010040
:1027000006C0044000000410071004E00180060029
:1027100004000000044005C0064004400000000022
:10272000000004007BE040200000000000000000EA
:10273000FFF000000000000040207BE004000000EB
:102740000000400080004000200020004000000009
:102750000000000000000000000000000000000079
:10276000000000001FCC000C000000000000000072
:102770000800300060000800300060000000022007
:1027800003FC1E20022003FC1E200220000000008B
:102790000E1811043FFF10840C78000000000F0099
:1027A00010840F3800C00778188400780000007883
:1027B0000F8410C411240E9800E40084000808005F
:1027C0006800700000000000000000000000000031
:1027D0000000000007E0181820044002000000007C
:1027E00040022004181807E000000000000002402A
:1027F000024001800FF00180024002400000008092
:10280000008000800FF80080008000800000000140
:10281000000D000E0000000000000000000000009D
:102820000080008000800080008000800080000028
:10283000000C000C00000000000000000000000080
:10284000000600180060018006001800200000004B
:1028500007F0080810041004080807F00000000042
:10286000080408041FFC000400040000000000002D
:102870000E0C10141024104411840E0C00000000E3
:102880000C1810041104110412880C7000000000D0
:1028900000E00320042408241FFC002400000000A2
:1028A0001F9810841104110410881070000000009B
:1028B00007F0088811041104188800700000000057
:1028C0001C00100010FC13001C0010000000000091
:1028D0000E3811441084108411440E38000000009A
:1028E0000700088C10441044088807F0000000001E
:1028F00000000000030C030C0000000000000000BA
:1029000000000001010600000000000000000000BF
:10291000008001400220041008081004000002207A
:1029200002200220022002200220022000000000DB
:10293000100408080410022001400080000000007C
:102940000E001200100C106C10800F00000003E04D
:102950000C1813E4142417C4082807D0000000043E
:10296000003C03C41C40074000E4001C00041004A9
:102970001FFC1104110411040E880070000003E014
:102980000C1810041004100410081C10000010048F
:102990001FFC100410041004080807F000001004C5
:1029A0001FFC1104110417C41004081800001004BF
:1029B0001FFC1104110017C010000800000003E004
:1029C0000C181004100410441C780040000010047F
:1029D0001FFC10840080008010841FFC1004000085
:1029E000100410041FFC1004100400000000000379
:1029F0000001100110011FFE100010000000100463
:102A00001FFC110403801464181C1004000010043F
:102A10001FFC1004000400040004000C000010045B
:102A20001FFC1F0000FC1F001FFC1004000010040E
:102A30001FFC0C04030000E010181FFC100007F03E
:102A40000808100410041004080807F0000010041F
:102A50001FFC10841080108010800F00000007F011
:102A6000081810241024101C080A07F20000100493
:102A70001FFC1104110011C011300E0C00040000E5
:102A80000E1C11041084108410441C38000018001F
:102A9000100010041FFC10041000180000001000AB
:102AA0001FF810040004000410041FF810001000A8
:102AB0001E0011E0001C007013801C0010001FC0DD
:102AC000103C00E01F0000E0103C1FC0000010049C
:102AD000180C163401C001C01634180C1004100074
:102AE0001C00130400FC13041C0010000000080468
:102AF000101C1064108413041C0410180000000043
:102B0000000000007FFE4002400240020000000082
:102B100030000C0003800060001C00030000000077
:102B20004002400240027FFE000000000000000062
:102B30000000200040004000400020000000000194
:102B4000000100010001000100010001000100007E
:102B500040004000200000000000000000000000D5
:102B60000098012401440144014400FC00041000C9
:102B70001FFC0088010401040088007000000000B0
:102B800000700088010401040104008800000000B6
:102B9000007000880104010411081FFC00040000FB
:102BA00000F8014401440144014400C80000000051
:102BB000010401040FFC11041104110018000000AD
:102BC00000D601290129012901C9010600001004CC
:102BD0001FFC008401000100010400FC000400004F
:102BE0000104190419FC00040004000000000000A6
:102BF000000300010101190119FE0000000010048A
:102C00001FFC0024004001B4010C0104000000007E
:102C1000100410041FFC0004000400000000010464
:102C200001FC0104010001FC0104010000FC01049D
:102C300001FC008401000100010400FC000400000C
:102C400000F8010401040104010400F8000001017E
:102C500001FF0085010401040088007000000000ED
:102C60000070008801040104010501FF0001010456
:102C7000010401FC00840104010001800000000047
:102C800000CC01240124012401240198000000004B
:102C90000100010007F80104010400000000010028
:102CA00001F8000400040004010801FC0004010014
:102CB00001800170000C001001600180010001F032
:102CC000010C003001C00030010C01F001000000D7
:102CD0000104018C00740170018C010400000101E9
:102CE00001810171000E00180160018001000000E7
:102CF0000184010C013401440184010C0000000036
:102D000000000000000001003EFC40024002000004
:102D1000000000000000FFFF0000000000000000B5
:102D2000400240023EFC01000000000000000000E4
:102D30006000800080004000400020002000000073
:102D4000602D000800000020680000006C010008F1
:102D5000C82D000868000020D00D00008801000880
:102D60000000000000000000000000000000000063
:102D70000000000000000000000000000000000053
:102D80000000000000000000000000000000000043
:102D90000000000000000000000000000000000033
:102DA0000000000000000000000000000000000023
:102DB00000000000000000000000000012345678FF
:082DC000A112345678A10000B5
:0400000508000131BD
:00000001FF
